{
  "_format": "hh-sol-artifact-1",
  "contractName": "saveallvoter",
  "sourceName": "contracts/Votesystem.sol",
  "abi": [
    {
      "anonymous": false,
      "inputs": [
        {
          "indexed": true,
          "internalType": "string",
          "name": "_voterid",
          "type": "string"
        },
        {
          "indexed": false,
          "internalType": "address",
          "name": "newvoeraddress",
          "type": "address"
        },
        {
          "indexed": true,
          "internalType": "address",
          "name": "walletaddress",
          "type": "address"
        }
      ],
      "name": "onevote",
      "type": "event"
    },
    {
      "inputs": [
        {
          "internalType": "string",
          "name": "_voterid",
          "type": "string"
        }
      ],
      "name": "savevoter",
      "outputs": [],
      "stateMutability": "nonpayable",
      "type": "function"
    }
  ],
  "bytecode": "0x6080604052348015600f57600080fd5b50610cbc8061001f6000396000f3fe608060405234801561001057600080fd5b506004361061002b5760003560e01c8063981ff53f14610030575b600080fd5b61004a60048036038101906100459190610255565b61004c565b005b6000813360405161005c906100ee565b61006792919061035e565b604051809103906000f080158015610083573d6000803e3d6000fd5b5090503373ffffffffffffffffffffffffffffffffffffffff16826040516100ab91906103ca565b60405180910390207f532c8a7cf0c985113c4192f6422cae2f65d1c41bc6a087e5a65a1919b5b4f6b0836040516100e291906103e1565b60405180910390a35050565b61088a806103fd83390190565b6000604051905090565b600080fd5b600080fd5b600080fd5b600080fd5b6000601f19601f8301169050919050565b7f4e487b7100000000000000000000000000000000000000000000000000000000600052604160045260246000fd5b61016282610119565b810181811067ffffffffffffffff821117156101815761018061012a565b5b80604052505050565b60006101946100fb565b90506101a08282610159565b919050565b600067ffffffffffffffff8211156101c0576101bf61012a565b5b6101c982610119565b9050602081019050919050565b82818337600083830152505050565b60006101f86101f3846101a5565b61018a565b90508281526020810184848401111561021457610213610114565b5b61021f8482856101d6565b509392505050565b600082601f83011261023c5761023b61010f565b5b813561024c8482602086016101e5565b91505092915050565b60006020828403121561026b5761026a610105565b5b600082013567ffffffffffffffff8111156102895761028861010a565b5b61029584828501610227565b91505092915050565b600081519050919050565b600082825260208201905092915050565b60005b838110156102d85780820151818401526020810190506102bd565b60008484015250505050565b60006102ef8261029e565b6102f981856102a9565b93506103098185602086016102ba565b61031281610119565b840191505092915050565b600073ffffffffffffffffffffffffffffffffffffffff82169050919050565b60006103488261031d565b9050919050565b6103588161033d565b82525050565b6000604082019050818103600083015261037881856102e4565b9050610387602083018461034f565b9392505050565b600081905092915050565b60006103a48261029e565b6103ae818561038e565b93506103be8185602086016102ba565b80840191505092915050565b60006103d68284610399565b915081905092915050565b60006020820190506103f6600083018461034f565b9291505056fe608060405234801561001057600080fd5b5060405161088a38038061088a8339818101604052810190610032919061025d565b816000908161004191906104da565b5080600160006101000a81548173ffffffffffffffffffffffffffffffffffffffff021916908373ffffffffffffffffffffffffffffffffffffffff16021790555050506105ac565b6000604051905090565b600080fd5b600080fd5b600080fd5b600080fd5b6000601f19601f8301169050919050565b7f4e487b7100000000000000000000000000000000000000000000000000000000600052604160045260246000fd5b6100f1826100a8565b810181811067ffffffffffffffff821117156101105761010f6100b9565b5b80604052505050565b600061012361008a565b905061012f82826100e8565b919050565b600067ffffffffffffffff82111561014f5761014e6100b9565b5b610158826100a8565b9050602081019050919050565b60005b83811015610183578082015181840152602081019050610168565b60008484015250505050565b60006101a261019d84610134565b610119565b9050828152602081018484840111156101be576101bd6100a3565b5b6101c9848285610165565b509392505050565b600082601f8301126101e6576101e561009e565b5b81516101f684826020860161018f565b91505092915050565b600073ffffffffffffffffffffffffffffffffffffffff82169050919050565b600061022a826101ff565b9050919050565b61023a8161021f565b811461024557600080fd5b50565b60008151905061025781610231565b92915050565b6000806040838503121561027457610273610094565b5b600083015167ffffffffffffffff81111561029257610291610099565b5b61029e858286016101d1565b92505060206102af85828601610248565b9150509250929050565b600081519050919050565b7f4e487b7100000000000000000000000000000000000000000000000000000000600052602260045260246000fd5b6000600282049050600182168061030b57607f821691505b60208210810361031e5761031d6102c4565b5b50919050565b60008190508160005260206000209050919050565b60006020601f8301049050919050565b600082821b905092915050565b6000600883026103867fffffffffffffffffffffffffffffffffffffffffffffffffffffffffffffffff82610349565b6103908683610349565b95508019841693508086168417925050509392505050565b6000819050919050565b6000819050919050565b60006103d76103d26103cd846103a8565b6103b2565b6103a8565b9050919050565b6000819050919050565b6103f1836103bc565b6104056103fd826103de565b848454610356565b825550505050565b600090565b61041a61040d565b6104258184846103e8565b505050565b5b818110156104495761043e600082610412565b60018101905061042b565b5050565b601f82111561048e5761045f81610324565b61046884610339565b81016020851015610477578190505b61048b61048385610339565b83018261042a565b50505b505050565b600082821c905092915050565b60006104b160001984600802610493565b1980831691505092915050565b60006104ca83836104a0565b9150826002028217905092915050565b6104e3826102b9565b67ffffffffffffffff8111156104fc576104fb6100b9565b5b61050682546102f3565b61051182828561044d565b600060209050601f8311600181146105445760008415610532578287015190505b61053c85826104be565b8655506105a4565b601f19841661055286610324565b60005b8281101561057a57848901518255600182019150602085019450602081019050610555565b868310156105975784890151610593601f8916826104a0565b8355505b6001600288020188555050505b505050505050565b6102cf806105bb6000396000f3fe608060405234801561001057600080fd5b50600436106100365760003560e01c8063d31040291461003b578063f003683014610059575b600080fd5b610043610077565b604051610050919061016c565b60405180910390f35b61006161009d565b60405161006e9190610217565b60405180910390f35b600160009054906101000a900473ffffffffffffffffffffffffffffffffffffffff1681565b600080546100aa90610268565b80601f01602080910402602001604051908101604052809291908181526020018280546100d690610268565b80156101235780601f106100f857610100808354040283529160200191610123565b820191906000526020600020905b81548152906001019060200180831161010657829003601f168201915b505050505081565b600073ffffffffffffffffffffffffffffffffffffffff82169050919050565b60006101568261012b565b9050919050565b6101668161014b565b82525050565b6000602082019050610181600083018461015d565b92915050565b600081519050919050565b600082825260208201905092915050565b60005b838110156101c15780820151818401526020810190506101a6565b60008484015250505050565b6000601f19601f8301169050919050565b60006101e982610187565b6101f38185610192565b93506102038185602086016101a3565b61020c816101cd565b840191505092915050565b6000602082019050818103600083015261023181846101de565b905092915050565b7f4e487b7100000000000000000000000000000000000000000000000000000000600052602260045260246000fd5b6000600282049050600182168061028057607f821691505b60208210810361029357610292610239565b5b5091905056fea2646970667358221220b7009b548f55c94a99564b4c92c55dc542b5ee3dc6c9ad531c146ddb1bb6f1db64736f6c634300081c0033a2646970667358221220931ae1db0c3782fa440c35f4d4d187b29ebb3d2bc95dceef051e50f587eda14d64736f6c634300081c0033",
  "linkReferences": {},
  "deployedLinkReferences": {}
}