{
  "_format": "hh-sol-artifact-1",
  "contractName": "Voter",
  "sourceName": "contracts/Votesystem.sol",
  "abi": [
    {
      "inputs": [
        {
          "internalType": "string",
          "name": "_voterid",
          "type": "string"
        },
        {
          "internalType": "address",
          "name": "_walletaddress",
          "type": "address"
        }
      ],
      "stateMutability": "nonpayable",
      "type": "constructor"
    },
    {
      "inputs": [],
      "name": "voteraddress",
      "outputs": [
        {
          "internalType": "address",
          "name": "",
          "type": "address"
        }
      ],
      "stateMutability": "view",
      "type": "function"
    },
    {
      "inputs": [],
      "name": "voterid",
      "outputs": [
        {
          "internalType": "string",
          "name": "",
          "type": "string"
        }
      ],
      "stateMutability": "view",
      "type": "function"
    }
  ],
  "bytecode": "0x608060405234801561001057600080fd5b5060405161088a38038061088a8339818101604052810190610032919061025d565b816000908161004191906104da565b5080600160006101000a81548173ffffffffffffffffffffffffffffffffffffffff021916908373ffffffffffffffffffffffffffffffffffffffff16021790555050506105ac565b6000604051905090565b600080fd5b600080fd5b600080fd5b600080fd5b6000601f19601f8301169050919050565b7f4e487b7100000000000000000000000000000000000000000000000000000000600052604160045260246000fd5b6100f1826100a8565b810181811067ffffffffffffffff821117156101105761010f6100b9565b5b80604052505050565b600061012361008a565b905061012f82826100e8565b919050565b600067ffffffffffffffff82111561014f5761014e6100b9565b5b610158826100a8565b9050602081019050919050565b60005b83811015610183578082015181840152602081019050610168565b60008484015250505050565b60006101a261019d84610134565b610119565b9050828152602081018484840111156101be576101bd6100a3565b5b6101c9848285610165565b509392505050565b600082601f8301126101e6576101e561009e565b5b81516101f684826020860161018f565b91505092915050565b600073ffffffffffffffffffffffffffffffffffffffff82169050919050565b600061022a826101ff565b9050919050565b61023a8161021f565b811461024557600080fd5b50565b60008151905061025781610231565b92915050565b6000806040838503121561027457610273610094565b5b600083015167ffffffffffffffff81111561029257610291610099565b5b61029e858286016101d1565b92505060206102af85828601610248565b9150509250929050565b600081519050919050565b7f4e487b7100000000000000000000000000000000000000000000000000000000600052602260045260246000fd5b6000600282049050600182168061030b57607f821691505b60208210810361031e5761031d6102c4565b5b50919050565b60008190508160005260206000209050919050565b60006020601f8301049050919050565b600082821b905092915050565b6000600883026103867fffffffffffffffffffffffffffffffffffffffffffffffffffffffffffffffff82610349565b6103908683610349565b95508019841693508086168417925050509392505050565b6000819050919050565b6000819050919050565b60006103d76103d26103cd846103a8565b6103b2565b6103a8565b9050919050565b6000819050919050565b6103f1836103bc565b6104056103fd826103de565b848454610356565b825550505050565b600090565b61041a61040d565b6104258184846103e8565b505050565b5b818110156104495761043e600082610412565b60018101905061042b565b5050565b601f82111561048e5761045f81610324565b61046884610339565b81016020851015610477578190505b61048b61048385610339565b83018261042a565b50505b505050565b600082821c905092915050565b60006104b160001984600802610493565b1980831691505092915050565b60006104ca83836104a0565b9150826002028217905092915050565b6104e3826102b9565b67ffffffffffffffff8111156104fc576104fb6100b9565b5b61050682546102f3565b61051182828561044d565b600060209050601f8311600181146105445760008415610532578287015190505b61053c85826104be565b8655506105a4565b601f19841661055286610324565b60005b8281101561057a57848901518255600182019150602085019450602081019050610555565b868310156105975784890151610593601f8916826104a0565b8355505b6001600288020188555050505b505050505050565b6102cf806105bb6000396000f3fe608060405234801561001057600080fd5b50600436106100365760003560e01c8063d31040291461003b578063f003683014610059575b600080fd5b610043610077565b604051610050919061016c565b60405180910390f35b61006161009d565b60405161006e9190610217565b60405180910390f35b600160009054906101000a900473ffffffffffffffffffffffffffffffffffffffff1681565b600080546100aa90610268565b80601f01602080910402602001604051908101604052809291908181526020018280546100d690610268565b80156101235780601f106100f857610100808354040283529160200191610123565b820191906000526020600020905b81548152906001019060200180831161010657829003601f168201915b505050505081565b600073ffffffffffffffffffffffffffffffffffffffff82169050919050565b60006101568261012b565b9050919050565b6101668161014b565b82525050565b6000602082019050610181600083018461015d565b92915050565b600081519050919050565b600082825260208201905092915050565b60005b838110156101c15780820151818401526020810190506101a6565b60008484015250505050565b6000601f19601f8301169050919050565b60006101e982610187565b6101f38185610192565b93506102038185602086016101a3565b61020c816101cd565b840191505092915050565b6000602082019050818103600083015261023181846101de565b905092915050565b7f4e487b7100000000000000000000000000000000000000000000000000000000600052602260045260246000fd5b6000600282049050600182168061028057607f821691505b60208210810361029357610292610239565b5b5091905056fea2646970667358221220b7009b548f55c94a99564b4c92c55dc542b5ee3dc6c9ad531c146ddb1bb6f1db64736f6c634300081c0033",
  "linkReferences": {},
  "deployedLinkReferences": {}
}