{
  "_format": "hh-sol-artifact-1",
  "contractName": "Voter",
  "sourceName": "contracts/Votesystem.sol",
  "abi": [
    {
      "anonymous": false,
      "inputs": [
        {
          "indexed": true,
          "internalType": "uint256",
          "name": "votecandidate",
          "type": "uint256"
        },
        {
          "indexed": true,
          "internalType": "bytes32",
          "name": "voterid",
          "type": "bytes32"
        },
        {
          "indexed": false,
          "internalType": "address",
          "name": "wallate",
          "type": "address"
        },
        {
          "indexed": false,
          "internalType": "uint256",
          "name": "time",
          "type": "uint256"
        }
      ],
      "name": "storevote",
      "type": "event"
    },
    {
      "inputs": [
        {
          "internalType": "uint256",
          "name": "_votecandidate",
          "type": "uint256"
        },
        {
          "internalType": "bytes32",
          "name": "_voterid",
          "type": "bytes32"
        }
      ],
      "name": "enterythevote",
      "outputs": [],
      "stateMutability": "nonpayable",
      "type": "function"
    },
    {
      "inputs": [],
      "name": "votecandidate",
      "outputs": [
        {
          "internalType": "uint256",
          "name": "",
          "type": "uint256"
        }
      ],
      "stateMutability": "view",
      "type": "function"
    },
    {
      "inputs": [],
      "name": "voteraddress",
      "outputs": [
        {
          "internalType": "address",
          "name": "",
          "type": "address"
        }
      ],
      "stateMutability": "view",
      "type": "function"
    },
    {
      "inputs": [],
      "name": "voterid",
      "outputs": [
        {
          "internalType": "bytes32",
          "name": "",
          "type": "bytes32"
        }
      ],
      "stateMutability": "view",
      "type": "function"
    }
  ],
  "bytecode": "0x6080604052348015600f57600080fd5b506103018061001f6000396000f3fe608060405234801561001057600080fd5b506004361061004c5760003560e01c806323a855c3146100515780632c5483451461006f578063d31040291461008b578063f0036830146100a9575b600080fd5b6100596100c7565b604051610066919061015a565b60405180910390f35b610089600480360381019061008491906101dc565b6100cd565b005b610093610115565b6040516100a0919061025d565b60405180910390f35b6100b161013b565b6040516100be9190610287565b60405180910390f35b60025481565b81600281905550806002547f6f8393789aaf93d9a39330c0f15b155416278394e84180287cd230c4b3c5b4d433426040516101099291906102a2565b60405180910390a35050565b600160009054906101000a900473ffffffffffffffffffffffffffffffffffffffff1681565b60005481565b6000819050919050565b61015481610141565b82525050565b600060208201905061016f600083018461014b565b92915050565b600080fd5b61018381610141565b811461018e57600080fd5b50565b6000813590506101a08161017a565b92915050565b6000819050919050565b6101b9816101a6565b81146101c457600080fd5b50565b6000813590506101d6816101b0565b92915050565b600080604083850312156101f3576101f2610175565b5b600061020185828601610191565b9250506020610212858286016101c7565b9150509250929050565b600073ffffffffffffffffffffffffffffffffffffffff82169050919050565b60006102478261021c565b9050919050565b6102578161023c565b82525050565b6000602082019050610272600083018461024e565b92915050565b610281816101a6565b82525050565b600060208201905061029c6000830184610278565b92915050565b60006040820190506102b7600083018561024e565b6102c4602083018461014b565b939250505056fea264697066735822122038371c7a5d8a3399294e8713392f4ee4241ca1563999a905f1a8c21d9cb37b6e64736f6c634300081c0033",
  "linkReferences": {},
  "deployedLinkReferences": {}
}